{
	"voting.sol": {
		"VotingSystem": {
			"abi": [
				{
					"inputs": [],
					"stateMutability": "nonpayable",
					"type": "constructor"
				},
				{
					"anonymous": false,
					"inputs": [
						{
							"indexed": true,
							"internalType": "address",
							"name": "voter",
							"type": "address"
						},
						{
							"indexed": false,
							"internalType": "enum VotingSystem.Party",
							"name": "party",
							"type": "uint8"
						},
						{
							"indexed": false,
							"internalType": "uint256",
							"name": "aadharNumber",
							"type": "uint256"
						}
					],
					"name": "Voted",
					"type": "event"
				},
				{
					"inputs": [
						{
							"internalType": "uint256",
							"name": "",
							"type": "uint256"
						}
					],
					"name": "aadharHasVoted",
					"outputs": [
						{
							"internalType": "bool",
							"name": "",
							"type": "bool"
						}
					],
					"stateMutability": "view",
					"type": "function"
				},
				{
					"inputs": [],
					"name": "getAamAadmiVotes",
					"outputs": [
						{
							"internalType": "uint256",
							"name": "",
							"type": "uint256"
						}
					],
					"stateMutability": "view",
					"type": "function"
				},
				{
					"inputs": [],
					"name": "getBJPVotes",
					"outputs": [
						{
							"internalType": "uint256",
							"name": "",
							"type": "uint256"
						}
					],
					"stateMutability": "view",
					"type": "function"
				},
				{
					"inputs": [],
					"name": "getCongressVotes",
					"outputs": [
						{
							"internalType": "uint256",
							"name": "",
							"type": "uint256"
						}
					],
					"stateMutability": "view",
					"type": "function"
				},
				{
					"inputs": [],
					"name": "getVoterAadhar",
					"outputs": [
						{
							"internalType": "uint256",
							"name": "",
							"type": "uint256"
						}
					],
					"stateMutability": "view",
					"type": "function"
				},
				{
					"inputs": [
						{
							"internalType": "enum VotingSystem.Party",
							"name": "party",
							"type": "uint8"
						}
					],
					"name": "getVotes",
					"outputs": [
						{
							"internalType": "uint256",
							"name": "",
							"type": "uint256"
						}
					],
					"stateMutability": "view",
					"type": "function"
				},
				{
					"inputs": [],
					"name": "owner",
					"outputs": [
						{
							"internalType": "address",
							"name": "",
							"type": "address"
						}
					],
					"stateMutability": "view",
					"type": "function"
				},
				{
					"inputs": [
						{
							"internalType": "enum VotingSystem.Party",
							"name": "party",
							"type": "uint8"
						},
						{
							"internalType": "uint256",
							"name": "aadharNumber",
							"type": "uint256"
						}
					],
					"name": "vote",
					"outputs": [],
					"stateMutability": "nonpayable",
					"type": "function"
				},
				{
					"inputs": [
						{
							"internalType": "address",
							"name": "",
							"type": "address"
						}
					],
					"name": "voterAadhar",
					"outputs": [
						{
							"internalType": "uint256",
							"name": "",
							"type": "uint256"
						}
					],
					"stateMutability": "view",
					"type": "function"
				},
				{
					"inputs": [
						{
							"internalType": "enum VotingSystem.Party",
							"name": "",
							"type": "uint8"
						}
					],
					"name": "votes",
					"outputs": [
						{
							"internalType": "uint256",
							"name": "",
							"type": "uint256"
						}
					],
					"stateMutability": "view",
					"type": "function"
				}
			],
			"devdoc": {
				"kind": "dev",
				"methods": {},
				"version": 1
			},
			"evm": {
				"assembly": "    /* \"voting.sol\":58:2234  contract VotingSystem {... */\n  mstore(0x40, 0x80)\n    /* \"voting.sol\":653:849  constructor() {... */\n  callvalue\n  dup1\n  iszero\n  tag_1\n  jumpi\n  0x00\n  dup1\n  revert\ntag_1:\n  pop\n    /* \"voting.sol\":686:696  msg.sender */\n  caller\n    /* \"voting.sol\":678:683  owner */\n  0x00\n  dup1\n    /* \"voting.sol\":678:696  owner = msg.sender */\n  0x0100\n  exp\n  dup2\n  sload\n  dup2\n  0xffffffffffffffffffffffffffffffffffffffff\n  mul\n  not\n  and\n  swap1\n  dup4\n  0xffffffffffffffffffffffffffffffffffffffff\n  and\n  mul\n  or\n  swap1\n  sstore\n  pop\n    /* \"voting.sol\":768:769  0 */\n  0x00\n    /* \"voting.sol\":749:754  votes */\n  0x01\n    /* \"voting.sol\":749:765  votes[Party.BJP] */\n  0x00\n    /* \"voting.sol\":755:764  Party.BJP */\n  dup1\n    /* \"voting.sol\":749:765  votes[Party.BJP] */\n  0x02\n  dup2\n  gt\n  iszero\n  tag_4\n  jumpi\n  tag_5\n  tag_6\n  jump\t// in\ntag_5:\ntag_4:\n  0x02\n  dup2\n  gt\n  iszero\n  tag_7\n  jumpi\n  tag_8\n  tag_6\n  jump\t// in\ntag_8:\ntag_7:\n  dup2\n  mstore\n  0x20\n  add\n  swap1\n  dup2\n  mstore\n  0x20\n  add\n  0x00\n  keccak256\n    /* \"voting.sol\":749:769  votes[Party.BJP] = 0 */\n  dup2\n  swap1\n  sstore\n  pop\n    /* \"voting.sol\":804:805  0 */\n  0x00\n    /* \"voting.sol\":780:785  votes */\n  0x01\n    /* \"voting.sol\":780:801  votes[Party.Congress] */\n  0x00\n    /* \"voting.sol\":786:800  Party.Congress */\n  0x01\n    /* \"voting.sol\":780:801  votes[Party.Congress] */\n  0x02\n  dup2\n  gt\n  iszero\n  tag_9\n  jumpi\n  tag_10\n  tag_6\n  jump\t// in\ntag_10:\ntag_9:\n  0x02\n  dup2\n  gt\n  iszero\n  tag_11\n  jumpi\n  tag_12\n  tag_6\n  jump\t// in\ntag_12:\ntag_11:\n  dup2\n  mstore\n  0x20\n  add\n  swap1\n  dup2\n  mstore\n  0x20\n  add\n  0x00\n  keccak256\n    /* \"voting.sol\":780:805  votes[Party.Congress] = 0 */\n  dup2\n  swap1\n  sstore\n  pop\n    /* \"voting.sol\":840:841  0 */\n  0x00\n    /* \"voting.sol\":816:821  votes */\n  0x01\n    /* \"voting.sol\":816:837  votes[Party.AamAadmi] */\n  0x00\n    /* \"voting.sol\":822:836  Party.AamAadmi */\n  0x02\n    /* \"voting.sol\":816:837  votes[Party.AamAadmi] */\n  dup1\n  dup2\n  gt\n  iszero\n  tag_13\n  jumpi\n  tag_14\n  tag_6\n  jump\t// in\ntag_14:\ntag_13:\n  0x02\n  dup2\n  gt\n  iszero\n  tag_15\n  jumpi\n  tag_16\n  tag_6\n  jump\t// in\ntag_16:\ntag_15:\n  dup2\n  mstore\n  0x20\n  add\n  swap1\n  dup2\n  mstore\n  0x20\n  add\n  0x00\n  keccak256\n    /* \"voting.sol\":816:841  votes[Party.AamAadmi] = 0 */\n  dup2\n  swap1\n  sstore\n  pop\n    /* \"voting.sol\":58:2234  contract VotingSystem {... */\n  jump(tag_17)\n    /* \"#utility.yul\":7:187   */\ntag_6:\n    /* \"#utility.yul\":55:132   */\n  0x4e487b7100000000000000000000000000000000000000000000000000000000\n    /* \"#utility.yul\":52:53   */\n  0x00\n    /* \"#utility.yul\":45:133   */\n  mstore\n    /* \"#utility.yul\":152:156   */\n  0x21\n    /* \"#utility.yul\":149:150   */\n  0x04\n    /* \"#utility.yul\":142:157   */\n  mstore\n    /* \"#utility.yul\":176:180   */\n  0x24\n    /* \"#utility.yul\":173:174   */\n  0x00\n    /* \"#utility.yul\":166:181   */\n  revert\n    /* \"voting.sol\":58:2234  contract VotingSystem {... */\ntag_17:\n  dataSize(sub_0)\n  dup1\n  dataOffset(sub_0)\n  0x00\n  codecopy\n  0x00\n  return\nstop\n\nsub_0: assembly {\n        /* \"voting.sol\":58:2234  contract VotingSystem {... */\n      mstore(0x40, 0x80)\n      callvalue\n      dup1\n      iszero\n      tag_1\n      jumpi\n      0x00\n      dup1\n      revert\n    tag_1:\n      pop\n      jumpi(tag_2, lt(calldatasize, 0x04))\n      shr(0xe0, calldataload(0x00))\n      dup1\n      0x8da5cb5b\n      gt\n      tag_13\n      jumpi\n      dup1\n      0x8da5cb5b\n      eq\n      tag_8\n      jumpi\n      dup1\n      0x9435092d\n      eq\n      tag_9\n      jumpi\n      dup1\n      0xc1b43357\n      eq\n      tag_10\n      jumpi\n      dup1\n      0xc2800ae0\n      eq\n      tag_11\n      jumpi\n      dup1\n      0xd3f29ace\n      eq\n      tag_12\n      jumpi\n      jump(tag_2)\n    tag_13:\n      dup1\n      0x0249aa61\n      eq\n      tag_3\n      jumpi\n      dup1\n      0x08a5917c\n      eq\n      tag_4\n      jumpi\n      dup1\n      0x10f40927\n      eq\n      tag_5\n      jumpi\n      dup1\n      0x4319c327\n      eq\n      tag_6\n      jumpi\n      dup1\n      0x8953bb72\n      eq\n      tag_7\n      jumpi\n    tag_2:\n      0x00\n      dup1\n      revert\n        /* \"voting.sol\":441:484  mapping(uint => bool) public aadharHasVoted */\n    tag_3:\n      tag_14\n      0x04\n      dup1\n      calldatasize\n      sub\n      dup2\n      add\n      swap1\n      tag_15\n      swap2\n      swap1\n      tag_16\n      jump\t// in\n    tag_15:\n      tag_17\n      jump\t// in\n    tag_14:\n      mload(0x40)\n      tag_18\n      swap2\n      swap1\n      tag_19\n      jump\t// in\n    tag_18:\n      mload(0x40)\n      dup1\n      swap2\n      sub\n      swap1\n      return\n        /* \"voting.sol\":1971:2073  function getAamAadmiVotes() public view returns (uint) {... */\n    tag_4:\n      tag_20\n      tag_21\n      jump\t// in\n    tag_20:\n      mload(0x40)\n      tag_22\n      swap2\n      swap1\n      tag_23\n      jump\t// in\n    tag_22:\n      mload(0x40)\n      dup1\n      swap2\n      sub\n      swap1\n      return\n        /* \"voting.sol\":1863:1965  function getCongressVotes() public view returns (uint) {... */\n    tag_5:\n      tag_24\n      tag_25\n      jump\t// in\n    tag_24:\n      mload(0x40)\n      tag_26\n      swap2\n      swap1\n      tag_23\n      jump\t// in\n    tag_26:\n      mload(0x40)\n      dup1\n      swap2\n      sub\n      swap1\n      return\n        /* \"voting.sol\":391:434  mapping(address => uint) public voterAadhar */\n    tag_6:\n      tag_27\n      0x04\n      dup1\n      calldatasize\n      sub\n      dup2\n      add\n      swap1\n      tag_28\n      swap2\n      swap1\n      tag_29\n      jump\t// in\n    tag_28:\n      tag_30\n      jump\t// in\n    tag_27:\n      mload(0x40)\n      tag_31\n      swap2\n      swap1\n      tag_23\n      jump\t// in\n    tag_31:\n      mload(0x40)\n      dup1\n      swap2\n      sub\n      swap1\n      return\n        /* \"voting.sol\":1606:1702  function getVotes(Party party) public view returns (uint) {... */\n    tag_7:\n      tag_32\n      0x04\n      dup1\n      calldatasize\n      sub\n      dup2\n      add\n      swap1\n      tag_33\n      swap2\n      swap1\n      tag_34\n      jump\t// in\n    tag_33:\n      tag_35\n      jump\t// in\n    tag_32:\n      mload(0x40)\n      tag_36\n      swap2\n      swap1\n      tag_23\n      jump\t// in\n    tag_36:\n      mload(0x40)\n      dup1\n      swap2\n      sub\n      swap1\n      return\n        /* \"voting.sol\":117:137  address public owner */\n    tag_8:\n      tag_37\n      tag_38\n      jump\t// in\n    tag_37:\n      mload(0x40)\n      tag_39\n      swap2\n      swap1\n      tag_40\n      jump\t// in\n    tag_39:\n      mload(0x40)\n      dup1\n      swap2\n      sub\n      swap1\n      return\n        /* \"voting.sol\":1765:1857  function getBJPVotes() public view returns (uint) {... */\n    tag_9:\n      tag_41\n      tag_42\n      jump\t// in\n    tag_41:\n      mload(0x40)\n      tag_43\n      swap2\n      swap1\n      tag_23\n      jump\t// in\n    tag_43:\n      mload(0x40)\n      dup1\n      swap2\n      sub\n      swap1\n      return\n        /* \"voting.sol\":349:384  mapping(Party => uint) public votes */\n    tag_10:\n      tag_44\n      0x04\n      dup1\n      calldatasize\n      sub\n      dup2\n      add\n      swap1\n      tag_45\n      swap2\n      swap1\n      tag_34\n      jump\t// in\n    tag_45:\n      tag_46\n      jump\t// in\n    tag_44:\n      mload(0x40)\n      tag_47\n      swap2\n      swap1\n      tag_23\n      jump\t// in\n    tag_47:\n      mload(0x40)\n      dup1\n      swap2\n      sub\n      swap1\n      return\n        /* \"voting.sol\":2129:2231  function getVoterAadhar() public view returns (uint) {... */\n    tag_11:\n      tag_48\n      tag_49\n      jump\t// in\n    tag_48:\n      mload(0x40)\n      tag_50\n      swap2\n      swap1\n      tag_23\n      jump\t// in\n    tag_50:\n      mload(0x40)\n      dup1\n      swap2\n      sub\n      swap1\n      return\n        /* \"voting.sol\":887:1539  function vote(Party party, uint aadharNumber) public {... */\n    tag_12:\n      tag_51\n      0x04\n      dup1\n      calldatasize\n      sub\n      dup2\n      add\n      swap1\n      tag_52\n      swap2\n      swap1\n      tag_53\n      jump\t// in\n    tag_52:\n      tag_54\n      jump\t// in\n    tag_51:\n      stop\n        /* \"voting.sol\":441:484  mapping(uint => bool) public aadharHasVoted */\n    tag_17:\n      mstore(0x20, 0x03)\n      dup1\n      0x00\n      mstore\n      keccak256(0x00, 0x40)\n      0x00\n      swap2\n      pop\n      sload\n      swap1\n      0x0100\n      exp\n      swap1\n      div\n      0xff\n      and\n      dup2\n      jump\t// out\n        /* \"voting.sol\":1971:2073  function getAamAadmiVotes() public view returns (uint) {... */\n    tag_21:\n        /* \"voting.sol\":2020:2024  uint */\n      0x00\n        /* \"voting.sol\":2044:2049  votes */\n      0x01\n        /* \"voting.sol\":2044:2065  votes[Party.AamAadmi] */\n      0x00\n        /* \"voting.sol\":2050:2064  Party.AamAadmi */\n      0x02\n        /* \"voting.sol\":2044:2065  votes[Party.AamAadmi] */\n      dup1\n      dup2\n      gt\n      iszero\n      tag_56\n      jumpi\n      tag_57\n      tag_58\n      jump\t// in\n    tag_57:\n    tag_56:\n      0x02\n      dup2\n      gt\n      iszero\n      tag_59\n      jumpi\n      tag_60\n      tag_58\n      jump\t// in\n    tag_60:\n    tag_59:\n      dup2\n      mstore\n      0x20\n      add\n      swap1\n      dup2\n      mstore\n      0x20\n      add\n      0x00\n      keccak256\n      sload\n        /* \"voting.sol\":2037:2065  return votes[Party.AamAadmi] */\n      swap1\n      pop\n        /* \"voting.sol\":1971:2073  function getAamAadmiVotes() public view returns (uint) {... */\n      swap1\n      jump\t// out\n        /* \"voting.sol\":1863:1965  function getCongressVotes() public view returns (uint) {... */\n    tag_25:\n        /* \"voting.sol\":1912:1916  uint */\n      0x00\n        /* \"voting.sol\":1936:1941  votes */\n      0x01\n        /* \"voting.sol\":1936:1957  votes[Party.Congress] */\n      0x00\n        /* \"voting.sol\":1942:1956  Party.Congress */\n      0x01\n        /* \"voting.sol\":1936:1957  votes[Party.Congress] */\n      0x02\n      dup2\n      gt\n      iszero\n      tag_62\n      jumpi\n      tag_63\n      tag_58\n      jump\t// in\n    tag_63:\n    tag_62:\n      0x02\n      dup2\n      gt\n      iszero\n      tag_64\n      jumpi\n      tag_65\n      tag_58\n      jump\t// in\n    tag_65:\n    tag_64:\n      dup2\n      mstore\n      0x20\n      add\n      swap1\n      dup2\n      mstore\n      0x20\n      add\n      0x00\n      keccak256\n      sload\n        /* \"voting.sol\":1929:1957  return votes[Party.Congress] */\n      swap1\n      pop\n        /* \"voting.sol\":1863:1965  function getCongressVotes() public view returns (uint) {... */\n      swap1\n      jump\t// out\n        /* \"voting.sol\":391:434  mapping(address => uint) public voterAadhar */\n    tag_30:\n      mstore(0x20, 0x02)\n      dup1\n      0x00\n      mstore\n      keccak256(0x00, 0x40)\n      0x00\n      swap2\n      pop\n      swap1\n      pop\n      sload\n      dup2\n      jump\t// out\n        /* \"voting.sol\":1606:1702  function getVotes(Party party) public view returns (uint) {... */\n    tag_35:\n        /* \"voting.sol\":1658:1662  uint */\n      0x00\n        /* \"voting.sol\":1682:1687  votes */\n      0x01\n        /* \"voting.sol\":1682:1694  votes[party] */\n      0x00\n        /* \"voting.sol\":1688:1693  party */\n      dup4\n        /* \"voting.sol\":1682:1694  votes[party] */\n      0x02\n      dup2\n      gt\n      iszero\n      tag_67\n      jumpi\n      tag_68\n      tag_58\n      jump\t// in\n    tag_68:\n    tag_67:\n      0x02\n      dup2\n      gt\n      iszero\n      tag_69\n      jumpi\n      tag_70\n      tag_58\n      jump\t// in\n    tag_70:\n    tag_69:\n      dup2\n      mstore\n      0x20\n      add\n      swap1\n      dup2\n      mstore\n      0x20\n      add\n      0x00\n      keccak256\n      sload\n        /* \"voting.sol\":1675:1694  return votes[party] */\n      swap1\n      pop\n        /* \"voting.sol\":1606:1702  function getVotes(Party party) public view returns (uint) {... */\n      swap2\n      swap1\n      pop\n      jump\t// out\n        /* \"voting.sol\":117:137  address public owner */\n    tag_38:\n      0x00\n      dup1\n      sload\n      swap1\n      0x0100\n      exp\n      swap1\n      div\n      0xffffffffffffffffffffffffffffffffffffffff\n      and\n      dup2\n      jump\t// out\n        /* \"voting.sol\":1765:1857  function getBJPVotes() public view returns (uint) {... */\n    tag_42:\n        /* \"voting.sol\":1809:1813  uint */\n      0x00\n        /* \"voting.sol\":1833:1838  votes */\n      0x01\n        /* \"voting.sol\":1833:1849  votes[Party.BJP] */\n      0x00\n        /* \"voting.sol\":1839:1848  Party.BJP */\n      dup1\n        /* \"voting.sol\":1833:1849  votes[Party.BJP] */\n      0x02\n      dup2\n      gt\n      iszero\n      tag_72\n      jumpi\n      tag_73\n      tag_58\n      jump\t// in\n    tag_73:\n    tag_72:\n      0x02\n      dup2\n      gt\n      iszero\n      tag_74\n      jumpi\n      tag_75\n      tag_58\n      jump\t// in\n    tag_75:\n    tag_74:\n      dup2\n      mstore\n      0x20\n      add\n      swap1\n      dup2\n      mstore\n      0x20\n      add\n      0x00\n      keccak256\n      sload\n        /* \"voting.sol\":1826:1849  return votes[Party.BJP] */\n      swap1\n      pop\n        /* \"voting.sol\":1765:1857  function getBJPVotes() public view returns (uint) {... */\n      swap1\n      jump\t// out\n        /* \"voting.sol\":349:384  mapping(Party => uint) public votes */\n    tag_46:\n      mstore(0x20, 0x01)\n      dup1\n      0x00\n      mstore\n      keccak256(0x00, 0x40)\n      0x00\n      swap2\n      pop\n      swap1\n      pop\n      sload\n      dup2\n      jump\t// out\n        /* \"voting.sol\":2129:2231  function getVoterAadhar() public view returns (uint) {... */\n    tag_49:\n        /* \"voting.sol\":2176:2180  uint */\n      0x00\n        /* \"voting.sol\":2200:2211  voterAadhar */\n      0x02\n        /* \"voting.sol\":2200:2223  voterAadhar[msg.sender] */\n      0x00\n        /* \"voting.sol\":2212:2222  msg.sender */\n      caller\n        /* \"voting.sol\":2200:2223  voterAadhar[msg.sender] */\n      0xffffffffffffffffffffffffffffffffffffffff\n      and\n      0xffffffffffffffffffffffffffffffffffffffff\n      and\n      dup2\n      mstore\n      0x20\n      add\n      swap1\n      dup2\n      mstore\n      0x20\n      add\n      0x00\n      keccak256\n      sload\n        /* \"voting.sol\":2193:2223  return voterAadhar[msg.sender] */\n      swap1\n      pop\n        /* \"voting.sol\":2129:2231  function getVoterAadhar() public view returns (uint) {... */\n      swap1\n      jump\t// out\n        /* \"voting.sol\":887:1539  function vote(Party party, uint aadharNumber) public {... */\n    tag_54:\n        /* \"voting.sol\":960:974  aadharHasVoted */\n      0x03\n        /* \"voting.sol\":960:988  aadharHasVoted[aadharNumber] */\n      0x00\n        /* \"voting.sol\":975:987  aadharNumber */\n      dup3\n        /* \"voting.sol\":960:988  aadharHasVoted[aadharNumber] */\n      dup2\n      mstore\n      0x20\n      add\n      swap1\n      dup2\n      mstore\n      0x20\n      add\n      0x00\n      keccak256\n      0x00\n      swap1\n      sload\n      swap1\n      0x0100\n      exp\n      swap1\n      div\n      0xff\n      and\n        /* \"voting.sol\":959:988  !aadharHasVoted[aadharNumber] */\n      iszero\n        /* \"voting.sol\":951:1030  require(!aadharHasVoted[aadharNumber], \"This Aadhar number has already voted!\") */\n      tag_78\n      jumpi\n      mload(0x40)\n      0x08c379a000000000000000000000000000000000000000000000000000000000\n      dup2\n      mstore\n      0x04\n      add\n      tag_79\n      swap1\n      tag_80\n      jump\t// in\n    tag_79:\n      mload(0x40)\n      dup1\n      swap2\n      sub\n      swap1\n      revert\n    tag_78:\n        /* \"voting.sol\":1138:1139  0 */\n      0x00\n        /* \"voting.sol\":1111:1122  voterAadhar */\n      0x02\n        /* \"voting.sol\":1111:1134  voterAadhar[msg.sender] */\n      0x00\n        /* \"voting.sol\":1123:1133  msg.sender */\n      caller\n        /* \"voting.sol\":1111:1134  voterAadhar[msg.sender] */\n      0xffffffffffffffffffffffffffffffffffffffff\n      and\n      0xffffffffffffffffffffffffffffffffffffffff\n      and\n      dup2\n      mstore\n      0x20\n      add\n      swap1\n      dup2\n      mstore\n      0x20\n      add\n      0x00\n      keccak256\n      sload\n        /* \"voting.sol\":1111:1139  voterAadhar[msg.sender] != 0 */\n      eq\n        /* \"voting.sol\":1107:1256  if (voterAadhar[msg.sender] != 0) {... */\n      tag_81\n      jumpi\n        /* \"voting.sol\":1156:1170  uint oldAadhar */\n      0x00\n        /* \"voting.sol\":1173:1184  voterAadhar */\n      0x02\n        /* \"voting.sol\":1173:1196  voterAadhar[msg.sender] */\n      0x00\n        /* \"voting.sol\":1185:1195  msg.sender */\n      caller\n        /* \"voting.sol\":1173:1196  voterAadhar[msg.sender] */\n      0xffffffffffffffffffffffffffffffffffffffff\n      and\n      0xffffffffffffffffffffffffffffffffffffffff\n      and\n      dup2\n      mstore\n      0x20\n      add\n      swap1\n      dup2\n      mstore\n      0x20\n      add\n      0x00\n      keccak256\n      sload\n        /* \"voting.sol\":1156:1196  uint oldAadhar = voterAadhar[msg.sender] */\n      swap1\n      pop\n        /* \"voting.sol\":1239:1244  false */\n      0x00\n        /* \"voting.sol\":1211:1225  aadharHasVoted */\n      0x03\n        /* \"voting.sol\":1211:1236  aadharHasVoted[oldAadhar] */\n      0x00\n        /* \"voting.sol\":1226:1235  oldAadhar */\n      dup4\n        /* \"voting.sol\":1211:1236  aadharHasVoted[oldAadhar] */\n      dup2\n      mstore\n      0x20\n      add\n      swap1\n      dup2\n      mstore\n      0x20\n      add\n      0x00\n      keccak256\n      0x00\n        /* \"voting.sol\":1211:1244  aadharHasVoted[oldAadhar] = false */\n      0x0100\n      exp\n      dup2\n      sload\n      dup2\n      0xff\n      mul\n      not\n      and\n      swap1\n      dup4\n      iszero\n      iszero\n      mul\n      or\n      swap1\n      sstore\n      pop\n        /* \"voting.sol\":1141:1256  {... */\n      pop\n        /* \"voting.sol\":1107:1256  if (voterAadhar[msg.sender] != 0) {... */\n    tag_81:\n        /* \"voting.sol\":1345:1357  aadharNumber */\n      dup1\n        /* \"voting.sol\":1319:1330  voterAadhar */\n      0x02\n        /* \"voting.sol\":1319:1342  voterAadhar[msg.sender] */\n      0x00\n        /* \"voting.sol\":1331:1341  msg.sender */\n      caller\n        /* \"voting.sol\":1319:1342  voterAadhar[msg.sender] */\n      0xffffffffffffffffffffffffffffffffffffffff\n      and\n      0xffffffffffffffffffffffffffffffffffffffff\n      and\n      dup2\n      mstore\n      0x20\n      add\n      swap1\n      dup2\n      mstore\n      0x20\n      add\n      0x00\n      keccak256\n        /* \"voting.sol\":1319:1357  voterAadhar[msg.sender] = aadharNumber */\n      dup2\n      swap1\n      sstore\n      pop\n        /* \"voting.sol\":1368:1373  votes */\n      0x01\n        /* \"voting.sol\":1368:1380  votes[party] */\n      0x00\n        /* \"voting.sol\":1374:1379  party */\n      dup4\n        /* \"voting.sol\":1368:1380  votes[party] */\n      0x02\n      dup2\n      gt\n      iszero\n      tag_82\n      jumpi\n      tag_83\n      tag_58\n      jump\t// in\n    tag_83:\n    tag_82:\n      0x02\n      dup2\n      gt\n      iszero\n      tag_84\n      jumpi\n      tag_85\n      tag_58\n      jump\t// in\n    tag_85:\n    tag_84:\n      dup2\n      mstore\n      0x20\n      add\n      swap1\n      dup2\n      mstore\n      0x20\n      add\n      0x00\n      keccak256\n      0x00\n        /* \"voting.sol\":1368:1382  votes[party]++ */\n      dup2\n      sload\n      dup1\n      swap3\n      swap2\n      swap1\n      tag_86\n      swap1\n      tag_87\n      jump\t// in\n    tag_86:\n      swap2\n      swap1\n      pop\n      sstore\n      pop\n        /* \"voting.sol\":1424:1428  true */\n      0x01\n        /* \"voting.sol\":1393:1407  aadharHasVoted */\n      0x03\n        /* \"voting.sol\":1393:1421  aadharHasVoted[aadharNumber] */\n      0x00\n        /* \"voting.sol\":1408:1420  aadharNumber */\n      dup4\n        /* \"voting.sol\":1393:1421  aadharHasVoted[aadharNumber] */\n      dup2\n      mstore\n      0x20\n      add\n      swap1\n      dup2\n      mstore\n      0x20\n      add\n      0x00\n      keccak256\n      0x00\n        /* \"voting.sol\":1393:1428  aadharHasVoted[aadharNumber] = true */\n      0x0100\n      exp\n      dup2\n      sload\n      dup2\n      0xff\n      mul\n      not\n      and\n      swap1\n      dup4\n      iszero\n      iszero\n      mul\n      or\n      swap1\n      sstore\n      pop\n        /* \"voting.sol\":1499:1509  msg.sender */\n      caller\n        /* \"voting.sol\":1493:1531  Voted(msg.sender, party, aadharNumber) */\n      0xffffffffffffffffffffffffffffffffffffffff\n      and\n      0x78d96294d2cf18d8e22a8ad08170a97b7b0fbb5679ae831255aed8508c124ac9\n        /* \"voting.sol\":1511:1516  party */\n      dup4\n        /* \"voting.sol\":1518:1530  aadharNumber */\n      dup4\n        /* \"voting.sol\":1493:1531  Voted(msg.sender, party, aadharNumber) */\n      mload(0x40)\n      tag_88\n      swap3\n      swap2\n      swap1\n      tag_89\n      jump\t// in\n    tag_88:\n      mload(0x40)\n      dup1\n      swap2\n      sub\n      swap1\n      log2\n        /* \"voting.sol\":887:1539  function vote(Party party, uint aadharNumber) public {... */\n      pop\n      pop\n      jump\t// out\n        /* \"#utility.yul\":88:205   */\n    tag_91:\n        /* \"#utility.yul\":197:198   */\n      0x00\n        /* \"#utility.yul\":194:195   */\n      dup1\n        /* \"#utility.yul\":187:199   */\n      revert\n        /* \"#utility.yul\":334:411   */\n    tag_93:\n        /* \"#utility.yul\":371:378   */\n      0x00\n        /* \"#utility.yul\":400:405   */\n      dup2\n        /* \"#utility.yul\":389:405   */\n      swap1\n      pop\n        /* \"#utility.yul\":334:411   */\n      swap2\n      swap1\n      pop\n      jump\t// out\n        /* \"#utility.yul\":417:539   */\n    tag_94:\n        /* \"#utility.yul\":490:514   */\n      tag_120\n        /* \"#utility.yul\":508:513   */\n      dup2\n        /* \"#utility.yul\":490:514   */\n      tag_93\n      jump\t// in\n    tag_120:\n        /* \"#utility.yul\":483:488   */\n      dup2\n        /* \"#utility.yul\":480:515   */\n      eq\n        /* \"#utility.yul\":470:533   */\n      tag_121\n      jumpi\n        /* \"#utility.yul\":529:530   */\n      0x00\n        /* \"#utility.yul\":526:527   */\n      dup1\n        /* \"#utility.yul\":519:531   */\n      revert\n        /* \"#utility.yul\":470:533   */\n    tag_121:\n        /* \"#utility.yul\":417:539   */\n      pop\n      jump\t// out\n        /* \"#utility.yul\":545:684   */\n    tag_95:\n        /* \"#utility.yul\":591:596   */\n      0x00\n        /* \"#utility.yul\":629:635   */\n      dup2\n        /* \"#utility.yul\":616:636   */\n      calldataload\n        /* \"#utility.yul\":607:636   */\n      swap1\n      pop\n        /* \"#utility.yul\":645:678   */\n      tag_123\n        /* \"#utility.yul\":672:677   */\n      dup2\n        /* \"#utility.yul\":645:678   */\n      tag_94\n      jump\t// in\n    tag_123:\n        /* \"#utility.yul\":545:684   */\n      swap3\n      swap2\n      pop\n      pop\n      jump\t// out\n        /* \"#utility.yul\":690:1019   */\n    tag_16:\n        /* \"#utility.yul\":749:755   */\n      0x00\n        /* \"#utility.yul\":798:800   */\n      0x20\n        /* \"#utility.yul\":786:795   */\n      dup3\n        /* \"#utility.yul\":777:784   */\n      dup5\n        /* \"#utility.yul\":773:796   */\n      sub\n        /* \"#utility.yul\":769:801   */\n      slt\n        /* \"#utility.yul\":766:885   */\n      iszero\n      tag_125\n      jumpi\n        /* \"#utility.yul\":804:883   */\n      tag_126\n      tag_91\n      jump\t// in\n    tag_126:\n        /* \"#utility.yul\":766:885   */\n    tag_125:\n        /* \"#utility.yul\":924:925   */\n      0x00\n        /* \"#utility.yul\":949:1002   */\n      tag_127\n        /* \"#utility.yul\":994:1001   */\n      dup5\n        /* \"#utility.yul\":985:991   */\n      dup3\n        /* \"#utility.yul\":974:983   */\n      dup6\n        /* \"#utility.yul\":970:992   */\n      add\n        /* \"#utility.yul\":949:1002   */\n      tag_95\n      jump\t// in\n    tag_127:\n        /* \"#utility.yul\":939:1002   */\n      swap2\n      pop\n        /* \"#utility.yul\":895:1012   */\n      pop\n        /* \"#utility.yul\":690:1019   */\n      swap3\n      swap2\n      pop\n      pop\n      jump\t// out\n        /* \"#utility.yul\":1025:1115   */\n    tag_96:\n        /* \"#utility.yul\":1059:1066   */\n      0x00\n        /* \"#utility.yul\":1102:1107   */\n      dup2\n        /* \"#utility.yul\":1095:1108   */\n      iszero\n        /* \"#utility.yul\":1088:1109   */\n      iszero\n        /* \"#utility.yul\":1077:1109   */\n      swap1\n      pop\n        /* \"#utility.yul\":1025:1115   */\n      swap2\n      swap1\n      pop\n      jump\t// out\n        /* \"#utility.yul\":1121:1230   */\n    tag_97:\n        /* \"#utility.yul\":1202:1223   */\n      tag_130\n        /* \"#utility.yul\":1217:1222   */\n      dup2\n        /* \"#utility.yul\":1202:1223   */\n      tag_96\n      jump\t// in\n    tag_130:\n        /* \"#utility.yul\":1197:1200   */\n      dup3\n        /* \"#utility.yul\":1190:1224   */\n      mstore\n        /* \"#utility.yul\":1121:1230   */\n      pop\n      pop\n      jump\t// out\n        /* \"#utility.yul\":1236:1446   */\n    tag_19:\n        /* \"#utility.yul\":1323:1327   */\n      0x00\n        /* \"#utility.yul\":1361:1363   */\n      0x20\n        /* \"#utility.yul\":1350:1359   */\n      dup3\n        /* \"#utility.yul\":1346:1364   */\n      add\n        /* \"#utility.yul\":1338:1364   */\n      swap1\n      pop\n        /* \"#utility.yul\":1374:1439   */\n      tag_132\n        /* \"#utility.yul\":1436:1437   */\n      0x00\n        /* \"#utility.yul\":1425:1434   */\n      dup4\n        /* \"#utility.yul\":1421:1438   */\n      add\n        /* \"#utility.yul\":1412:1418   */\n      dup5\n        /* \"#utility.yul\":1374:1439   */\n      tag_97\n      jump\t// in\n    tag_132:\n        /* \"#utility.yul\":1236:1446   */\n      swap3\n      swap2\n      pop\n      pop\n      jump\t// out\n        /* \"#utility.yul\":1452:1570   */\n    tag_98:\n        /* \"#utility.yul\":1539:1563   */\n      tag_134\n        /* \"#utility.yul\":1557:1562   */\n      dup2\n        /* \"#utility.yul\":1539:1563   */\n      tag_93\n      jump\t// in\n    tag_134:\n        /* \"#utility.yul\":1534:1537   */\n      dup3\n        /* \"#utility.yul\":1527:1564   */\n      mstore\n        /* \"#utility.yul\":1452:1570   */\n      pop\n      pop\n      jump\t// out\n        /* \"#utility.yul\":1576:1798   */\n    tag_23:\n        /* \"#utility.yul\":1669:1673   */\n      0x00\n        /* \"#utility.yul\":1707:1709   */\n      0x20\n        /* \"#utility.yul\":1696:1705   */\n      dup3\n        /* \"#utility.yul\":1692:1710   */\n      add\n        /* \"#utility.yul\":1684:1710   */\n      swap1\n      pop\n        /* \"#utility.yul\":1720:1791   */\n      tag_136\n        /* \"#utility.yul\":1788:1789   */\n      0x00\n        /* \"#utility.yul\":1777:1786   */\n      dup4\n        /* \"#utility.yul\":1773:1790   */\n      add\n        /* \"#utility.yul\":1764:1770   */\n      dup5\n        /* \"#utility.yul\":1720:1791   */\n      tag_98\n      jump\t// in\n    tag_136:\n        /* \"#utility.yul\":1576:1798   */\n      swap3\n      swap2\n      pop\n      pop\n      jump\t// out\n        /* \"#utility.yul\":1804:1930   */\n    tag_99:\n        /* \"#utility.yul\":1841:1848   */\n      0x00\n        /* \"#utility.yul\":1881:1923   */\n      0xffffffffffffffffffffffffffffffffffffffff\n        /* \"#utility.yul\":1874:1879   */\n      dup3\n        /* \"#utility.yul\":1870:1924   */\n      and\n        /* \"#utility.yul\":1859:1924   */\n      swap1\n      pop\n        /* \"#utility.yul\":1804:1930   */\n      swap2\n      swap1\n      pop\n      jump\t// out\n        /* \"#utility.yul\":1936:2032   */\n    tag_100:\n        /* \"#utility.yul\":1973:1980   */\n      0x00\n        /* \"#utility.yul\":2002:2026   */\n      tag_139\n        /* \"#utility.yul\":2020:2025   */\n      dup3\n        /* \"#utility.yul\":2002:2026   */\n      tag_99\n      jump\t// in\n    tag_139:\n        /* \"#utility.yul\":1991:2026   */\n      swap1\n      pop\n        /* \"#utility.yul\":1936:2032   */\n      swap2\n      swap1\n      pop\n      jump\t// out\n        /* \"#utility.yul\":2038:2160   */\n    tag_101:\n        /* \"#utility.yul\":2111:2135   */\n      tag_141\n        /* \"#utility.yul\":2129:2134   */\n      dup2\n        /* \"#utility.yul\":2111:2135   */\n      tag_100\n      jump\t// in\n    tag_141:\n        /* \"#utility.yul\":2104:2109   */\n      dup2\n        /* \"#utility.yul\":2101:2136   */\n      eq\n        /* \"#utility.yul\":2091:2154   */\n      tag_142\n      jumpi\n        /* \"#utility.yul\":2150:2151   */\n      0x00\n        /* \"#utility.yul\":2147:2148   */\n      dup1\n        /* \"#utility.yul\":2140:2152   */\n      revert\n        /* \"#utility.yul\":2091:2154   */\n    tag_142:\n        /* \"#utility.yul\":2038:2160   */\n      pop\n      jump\t// out\n        /* \"#utility.yul\":2166:2305   */\n    tag_102:\n        /* \"#utility.yul\":2212:2217   */\n      0x00\n        /* \"#utility.yul\":2250:2256   */\n      dup2\n        /* \"#utility.yul\":2237:2257   */\n      calldataload\n        /* \"#utility.yul\":2228:2257   */\n      swap1\n      pop\n        /* \"#utility.yul\":2266:2299   */\n      tag_144\n        /* \"#utility.yul\":2293:2298   */\n      dup2\n        /* \"#utility.yul\":2266:2299   */\n      tag_101\n      jump\t// in\n    tag_144:\n        /* \"#utility.yul\":2166:2305   */\n      swap3\n      swap2\n      pop\n      pop\n      jump\t// out\n        /* \"#utility.yul\":2311:2640   */\n    tag_29:\n        /* \"#utility.yul\":2370:2376   */\n      0x00\n        /* \"#utility.yul\":2419:2421   */\n      0x20\n        /* \"#utility.yul\":2407:2416   */\n      dup3\n        /* \"#utility.yul\":2398:2405   */\n      dup5\n        /* \"#utility.yul\":2394:2417   */\n      sub\n        /* \"#utility.yul\":2390:2422   */\n      slt\n        /* \"#utility.yul\":2387:2506   */\n      iszero\n      tag_146\n      jumpi\n        /* \"#utility.yul\":2425:2504   */\n      tag_147\n      tag_91\n      jump\t// in\n    tag_147:\n        /* \"#utility.yul\":2387:2506   */\n    tag_146:\n        /* \"#utility.yul\":2545:2546   */\n      0x00\n        /* \"#utility.yul\":2570:2623   */\n      tag_148\n        /* \"#utility.yul\":2615:2622   */\n      dup5\n        /* \"#utility.yul\":2606:2612   */\n      dup3\n        /* \"#utility.yul\":2595:2604   */\n      dup6\n        /* \"#utility.yul\":2591:2613   */\n      add\n        /* \"#utility.yul\":2570:2623   */\n      tag_102\n      jump\t// in\n    tag_148:\n        /* \"#utility.yul\":2560:2623   */\n      swap2\n      pop\n        /* \"#utility.yul\":2516:2633   */\n      pop\n        /* \"#utility.yul\":2311:2640   */\n      swap3\n      swap2\n      pop\n      pop\n      jump\t// out\n        /* \"#utility.yul\":2646:2752   */\n    tag_103:\n        /* \"#utility.yul\":2726:2727   */\n      0x03\n        /* \"#utility.yul\":2719:2724   */\n      dup2\n        /* \"#utility.yul\":2716:2728   */\n      lt\n        /* \"#utility.yul\":2706:2746   */\n      tag_150\n      jumpi\n        /* \"#utility.yul\":2742:2743   */\n      0x00\n        /* \"#utility.yul\":2739:2740   */\n      dup1\n        /* \"#utility.yul\":2732:2744   */\n      revert\n        /* \"#utility.yul\":2706:2746   */\n    tag_150:\n        /* \"#utility.yul\":2646:2752   */\n      pop\n      jump\t// out\n        /* \"#utility.yul\":2758:2911   */\n    tag_104:\n        /* \"#utility.yul\":2811:2816   */\n      0x00\n        /* \"#utility.yul\":2849:2855   */\n      dup2\n        /* \"#utility.yul\":2836:2856   */\n      calldataload\n        /* \"#utility.yul\":2827:2856   */\n      swap1\n      pop\n        /* \"#utility.yul\":2865:2905   */\n      tag_152\n        /* \"#utility.yul\":2899:2904   */\n      dup2\n        /* \"#utility.yul\":2865:2905   */\n      tag_103\n      jump\t// in\n    tag_152:\n        /* \"#utility.yul\":2758:2911   */\n      swap3\n      swap2\n      pop\n      pop\n      jump\t// out\n        /* \"#utility.yul\":2917:3260   */\n    tag_34:\n        /* \"#utility.yul\":2983:2989   */\n      0x00\n        /* \"#utility.yul\":3032:3034   */\n      0x20\n        /* \"#utility.yul\":3020:3029   */\n      dup3\n        /* \"#utility.yul\":3011:3018   */\n      dup5\n        /* \"#utility.yul\":3007:3030   */\n      sub\n        /* \"#utility.yul\":3003:3035   */\n      slt\n        /* \"#utility.yul\":3000:3119   */\n      iszero\n      tag_154\n      jumpi\n        /* \"#utility.yul\":3038:3117   */\n      tag_155\n      tag_91\n      jump\t// in\n    tag_155:\n        /* \"#utility.yul\":3000:3119   */\n    tag_154:\n        /* \"#utility.yul\":3158:3159   */\n      0x00\n        /* \"#utility.yul\":3183:3243   */\n      tag_156\n        /* \"#utility.yul\":3235:3242   */\n      dup5\n        /* \"#utility.yul\":3226:3232   */\n      dup3\n        /* \"#utility.yul\":3215:3224   */\n      dup6\n        /* \"#utility.yul\":3211:3233   */\n      add\n        /* \"#utility.yul\":3183:3243   */\n      tag_104\n      jump\t// in\n    tag_156:\n        /* \"#utility.yul\":3173:3243   */\n      swap2\n      pop\n        /* \"#utility.yul\":3129:3253   */\n      pop\n        /* \"#utility.yul\":2917:3260   */\n      swap3\n      swap2\n      pop\n      pop\n      jump\t// out\n        /* \"#utility.yul\":3266:3384   */\n    tag_105:\n        /* \"#utility.yul\":3353:3377   */\n      tag_158\n        /* \"#utility.yul\":3371:3376   */\n      dup2\n        /* \"#utility.yul\":3353:3377   */\n      tag_100\n      jump\t// in\n    tag_158:\n        /* \"#utility.yul\":3348:3351   */\n      dup3\n        /* \"#utility.yul\":3341:3378   */\n      mstore\n        /* \"#utility.yul\":3266:3384   */\n      pop\n      pop\n      jump\t// out\n        /* \"#utility.yul\":3390:3612   */\n    tag_40:\n        /* \"#utility.yul\":3483:3487   */\n      0x00\n        /* \"#utility.yul\":3521:3523   */\n      0x20\n        /* \"#utility.yul\":3510:3519   */\n      dup3\n        /* \"#utility.yul\":3506:3524   */\n      add\n        /* \"#utility.yul\":3498:3524   */\n      swap1\n      pop\n        /* \"#utility.yul\":3534:3605   */\n      tag_160\n        /* \"#utility.yul\":3602:3603   */\n      0x00\n        /* \"#utility.yul\":3591:3600   */\n      dup4\n        /* \"#utility.yul\":3587:3604   */\n      add\n        /* \"#utility.yul\":3578:3584   */\n      dup5\n        /* \"#utility.yul\":3534:3605   */\n      tag_105\n      jump\t// in\n    tag_160:\n        /* \"#utility.yul\":3390:3612   */\n      swap3\n      swap2\n      pop\n      pop\n      jump\t// out\n        /* \"#utility.yul\":3618:4106   */\n    tag_53:\n        /* \"#utility.yul\":3693:3699   */\n      0x00\n        /* \"#utility.yul\":3701:3707   */\n      dup1\n        /* \"#utility.yul\":3750:3752   */\n      0x40\n        /* \"#utility.yul\":3738:3747   */\n      dup4\n        /* \"#utility.yul\":3729:3736   */\n      dup6\n        /* \"#utility.yul\":3725:3748   */\n      sub\n        /* \"#utility.yul\":3721:3753   */\n      slt\n        /* \"#utility.yul\":3718:3837   */\n      iszero\n      tag_162\n      jumpi\n        /* \"#utility.yul\":3756:3835   */\n      tag_163\n      tag_91\n      jump\t// in\n    tag_163:\n        /* \"#utility.yul\":3718:3837   */\n    tag_162:\n        /* \"#utility.yul\":3876:3877   */\n      0x00\n        /* \"#utility.yul\":3901:3961   */\n      tag_164\n        /* \"#utility.yul\":3953:3960   */\n      dup6\n        /* \"#utility.yul\":3944:3950   */\n      dup3\n        /* \"#utility.yul\":3933:3942   */\n      dup7\n        /* \"#utility.yul\":3929:3951   */\n      add\n        /* \"#utility.yul\":3901:3961   */\n      tag_104\n      jump\t// in\n    tag_164:\n        /* \"#utility.yul\":3891:3961   */\n      swap3\n      pop\n        /* \"#utility.yul\":3847:3971   */\n      pop\n        /* \"#utility.yul\":4010:4012   */\n      0x20\n        /* \"#utility.yul\":4036:4089   */\n      tag_165\n        /* \"#utility.yul\":4081:4088   */\n      dup6\n        /* \"#utility.yul\":4072:4078   */\n      dup3\n        /* \"#utility.yul\":4061:4070   */\n      dup7\n        /* \"#utility.yul\":4057:4079   */\n      add\n        /* \"#utility.yul\":4036:4089   */\n      tag_95\n      jump\t// in\n    tag_165:\n        /* \"#utility.yul\":4026:4089   */\n      swap2\n      pop\n        /* \"#utility.yul\":3981:4099   */\n      pop\n        /* \"#utility.yul\":3618:4106   */\n      swap3\n      pop\n      swap3\n      swap1\n      pop\n      jump\t// out\n        /* \"#utility.yul\":4112:4292   */\n    tag_58:\n        /* \"#utility.yul\":4160:4237   */\n      0x4e487b7100000000000000000000000000000000000000000000000000000000\n        /* \"#utility.yul\":4157:4158   */\n      0x00\n        /* \"#utility.yul\":4150:4238   */\n      mstore\n        /* \"#utility.yul\":4257:4261   */\n      0x21\n        /* \"#utility.yul\":4254:4255   */\n      0x04\n        /* \"#utility.yul\":4247:4262   */\n      mstore\n        /* \"#utility.yul\":4281:4285   */\n      0x24\n        /* \"#utility.yul\":4278:4279   */\n      0x00\n        /* \"#utility.yul\":4271:4286   */\n      revert\n        /* \"#utility.yul\":4298:4467   */\n    tag_106:\n        /* \"#utility.yul\":4382:4393   */\n      0x00\n        /* \"#utility.yul\":4416:4422   */\n      dup3\n        /* \"#utility.yul\":4411:4414   */\n      dup3\n        /* \"#utility.yul\":4404:4423   */\n      mstore\n        /* \"#utility.yul\":4456:4460   */\n      0x20\n        /* \"#utility.yul\":4451:4454   */\n      dup3\n        /* \"#utility.yul\":4447:4461   */\n      add\n        /* \"#utility.yul\":4432:4461   */\n      swap1\n      pop\n        /* \"#utility.yul\":4298:4467   */\n      swap3\n      swap2\n      pop\n      pop\n      jump\t// out\n        /* \"#utility.yul\":4473:4697   */\n    tag_107:\n        /* \"#utility.yul\":4613:4647   */\n      0x5468697320416164686172206e756d6265722068617320616c72656164792076\n        /* \"#utility.yul\":4609:4610   */\n      0x00\n        /* \"#utility.yul\":4601:4607   */\n      dup3\n        /* \"#utility.yul\":4597:4611   */\n      add\n        /* \"#utility.yul\":4590:4648   */\n      mstore\n        /* \"#utility.yul\":4682:4689   */\n      0x6f74656421000000000000000000000000000000000000000000000000000000\n        /* \"#utility.yul\":4677:4679   */\n      0x20\n        /* \"#utility.yul\":4669:4675   */\n      dup3\n        /* \"#utility.yul\":4665:4680   */\n      add\n        /* \"#utility.yul\":4658:4690   */\n      mstore\n        /* \"#utility.yul\":4473:4697   */\n      pop\n      jump\t// out\n        /* \"#utility.yul\":4703:5069   */\n    tag_108:\n        /* \"#utility.yul\":4845:4848   */\n      0x00\n        /* \"#utility.yul\":4866:4933   */\n      tag_170\n        /* \"#utility.yul\":4930:4932   */\n      0x25\n        /* \"#utility.yul\":4925:4928   */\n      dup4\n        /* \"#utility.yul\":4866:4933   */\n      tag_106\n      jump\t// in\n    tag_170:\n        /* \"#utility.yul\":4859:4933   */\n      swap2\n      pop\n        /* \"#utility.yul\":4942:5035   */\n      tag_171\n        /* \"#utility.yul\":5031:5034   */\n      dup3\n        /* \"#utility.yul\":4942:5035   */\n      tag_107\n      jump\t// in\n    tag_171:\n        /* \"#utility.yul\":5060:5062   */\n      0x40\n        /* \"#utility.yul\":5055:5058   */\n      dup3\n        /* \"#utility.yul\":5051:5063   */\n      add\n        /* \"#utility.yul\":5044:5063   */\n      swap1\n      pop\n        /* \"#utility.yul\":4703:5069   */\n      swap2\n      swap1\n      pop\n      jump\t// out\n        /* \"#utility.yul\":5075:5494   */\n    tag_80:\n        /* \"#utility.yul\":5241:5245   */\n      0x00\n        /* \"#utility.yul\":5279:5281   */\n      0x20\n        /* \"#utility.yul\":5268:5277   */\n      dup3\n        /* \"#utility.yul\":5264:5282   */\n      add\n        /* \"#utility.yul\":5256:5282   */\n      swap1\n      pop\n        /* \"#utility.yul\":5328:5337   */\n      dup2\n        /* \"#utility.yul\":5322:5326   */\n      dup2\n        /* \"#utility.yul\":5318:5338   */\n      sub\n        /* \"#utility.yul\":5314:5315   */\n      0x00\n        /* \"#utility.yul\":5303:5312   */\n      dup4\n        /* \"#utility.yul\":5299:5316   */\n      add\n        /* \"#utility.yul\":5292:5339   */\n      mstore\n        /* \"#utility.yul\":5356:5487   */\n      tag_173\n        /* \"#utility.yul\":5482:5486   */\n      dup2\n        /* \"#utility.yul\":5356:5487   */\n      tag_108\n      jump\t// in\n    tag_173:\n        /* \"#utility.yul\":5348:5487   */\n      swap1\n      pop\n        /* \"#utility.yul\":5075:5494   */\n      swap2\n      swap1\n      pop\n      jump\t// out\n        /* \"#utility.yul\":5500:5680   */\n    tag_109:\n        /* \"#utility.yul\":5548:5625   */\n      0x4e487b7100000000000000000000000000000000000000000000000000000000\n        /* \"#utility.yul\":5545:5546   */\n      0x00\n        /* \"#utility.yul\":5538:5626   */\n      mstore\n        /* \"#utility.yul\":5645:5649   */\n      0x11\n        /* \"#utility.yul\":5642:5643   */\n      0x04\n        /* \"#utility.yul\":5635:5650   */\n      mstore\n        /* \"#utility.yul\":5669:5673   */\n      0x24\n        /* \"#utility.yul\":5666:5667   */\n      0x00\n        /* \"#utility.yul\":5659:5674   */\n      revert\n        /* \"#utility.yul\":5686:5919   */\n    tag_87:\n        /* \"#utility.yul\":5725:5728   */\n      0x00\n        /* \"#utility.yul\":5748:5772   */\n      tag_176\n        /* \"#utility.yul\":5766:5771   */\n      dup3\n        /* \"#utility.yul\":5748:5772   */\n      tag_93\n      jump\t// in\n    tag_176:\n        /* \"#utility.yul\":5739:5772   */\n      swap2\n      pop\n        /* \"#utility.yul\":5794:5860   */\n      0xffffffffffffffffffffffffffffffffffffffffffffffffffffffffffffffff\n        /* \"#utility.yul\":5787:5792   */\n      dup3\n        /* \"#utility.yul\":5784:5861   */\n      sub\n        /* \"#utility.yul\":5781:5884   */\n      tag_177\n      jumpi\n        /* \"#utility.yul\":5864:5882   */\n      tag_178\n      tag_109\n      jump\t// in\n    tag_178:\n        /* \"#utility.yul\":5781:5884   */\n    tag_177:\n        /* \"#utility.yul\":5911:5912   */\n      0x01\n        /* \"#utility.yul\":5904:5909   */\n      dup3\n        /* \"#utility.yul\":5900:5913   */\n      add\n        /* \"#utility.yul\":5893:5913   */\n      swap1\n      pop\n        /* \"#utility.yul\":5686:5919   */\n      swap2\n      swap1\n      pop\n      jump\t// out\n        /* \"#utility.yul\":5925:6037   */\n    tag_110:\n        /* \"#utility.yul\":6005:6006   */\n      0x03\n        /* \"#utility.yul\":5998:6003   */\n      dup2\n        /* \"#utility.yul\":5995:6007   */\n      lt\n        /* \"#utility.yul\":5985:6031   */\n      tag_180\n      jumpi\n        /* \"#utility.yul\":6011:6029   */\n      tag_181\n      tag_58\n      jump\t// in\n    tag_181:\n        /* \"#utility.yul\":5985:6031   */\n    tag_180:\n        /* \"#utility.yul\":5925:6037   */\n      pop\n      jump\t// out\n        /* \"#utility.yul\":6043:6168   */\n    tag_111:\n        /* \"#utility.yul\":6087:6094   */\n      0x00\n        /* \"#utility.yul\":6116:6121   */\n      dup2\n        /* \"#utility.yul\":6105:6121   */\n      swap1\n      pop\n        /* \"#utility.yul\":6122:6162   */\n      tag_183\n        /* \"#utility.yul\":6156:6161   */\n      dup3\n        /* \"#utility.yul\":6122:6162   */\n      tag_110\n      jump\t// in\n    tag_183:\n        /* \"#utility.yul\":6043:6168   */\n      swap2\n      swap1\n      pop\n      jump\t// out\n        /* \"#utility.yul\":6174:6299   */\n    tag_112:\n        /* \"#utility.yul\":6229:6238   */\n      0x00\n        /* \"#utility.yul\":6262:6293   */\n      tag_185\n        /* \"#utility.yul\":6287:6292   */\n      dup3\n        /* \"#utility.yul\":6262:6293   */\n      tag_111\n      jump\t// in\n    tag_185:\n        /* \"#utility.yul\":6249:6293   */\n      swap1\n      pop\n        /* \"#utility.yul\":6174:6299   */\n      swap2\n      swap1\n      pop\n      jump\t// out\n        /* \"#utility.yul\":6305:6446   */\n    tag_113:\n        /* \"#utility.yul\":6397:6439   */\n      tag_187\n        /* \"#utility.yul\":6433:6438   */\n      dup2\n        /* \"#utility.yul\":6397:6439   */\n      tag_112\n      jump\t// in\n    tag_187:\n        /* \"#utility.yul\":6392:6395   */\n      dup3\n        /* \"#utility.yul\":6385:6440   */\n      mstore\n        /* \"#utility.yul\":6305:6446   */\n      pop\n      pop\n      jump\t// out\n        /* \"#utility.yul\":6452:6794   */\n    tag_89:\n        /* \"#utility.yul\":6578:6582   */\n      0x00\n        /* \"#utility.yul\":6616:6618   */\n      0x40\n        /* \"#utility.yul\":6605:6614   */\n      dup3\n        /* \"#utility.yul\":6601:6619   */\n      add\n        /* \"#utility.yul\":6593:6619   */\n      swap1\n      pop\n        /* \"#utility.yul\":6629:6705   */\n      tag_189\n        /* \"#utility.yul\":6702:6703   */\n      0x00\n        /* \"#utility.yul\":6691:6700   */\n      dup4\n        /* \"#utility.yul\":6687:6704   */\n      add\n        /* \"#utility.yul\":6678:6684   */\n      dup6\n        /* \"#utility.yul\":6629:6705   */\n      tag_113\n      jump\t// in\n    tag_189:\n        /* \"#utility.yul\":6715:6787   */\n      tag_190\n        /* \"#utility.yul\":6783:6785   */\n      0x20\n        /* \"#utility.yul\":6772:6781   */\n      dup4\n        /* \"#utility.yul\":6768:6786   */\n      add\n        /* \"#utility.yul\":6759:6765   */\n      dup5\n        /* \"#utility.yul\":6715:6787   */\n      tag_98\n      jump\t// in\n    tag_190:\n        /* \"#utility.yul\":6452:6794   */\n      swap4\n      swap3\n      pop\n      pop\n      pop\n      jump\t// out\n\n    auxdata: 0xa26469706673582212200b05486d2b3704fc07e3d7b929f8aa131df67a0f940931524434c28291c2738d64736f6c634300081a0033\n}\n",
				"bytecode": {
					"linkReferences": {},
					"object": "608060405234801561000f575f80fd5b50335f806101000a81548173ffffffffffffffffffffffffffffffffffffffff021916908373ffffffffffffffffffffffffffffffffffffffff1602179055505f60015f80600281111561006657610065610103565b5b600281111561007857610077610103565b5b81526020019081526020015f20819055505f60015f600160028111156100a1576100a0610103565b5b60028111156100b3576100b2610103565b5b81526020019081526020015f20819055505f60015f6002808111156100db576100da610103565b5b60028111156100ed576100ec610103565b5b81526020019081526020015f2081905550610130565b7f4e487b71000000000000000000000000000000000000000000000000000000005f52602160045260245ffd5b6109a18061013d5f395ff3fe608060405234801561000f575f80fd5b506004361061009c575f3560e01c80638da5cb5b116100645780638da5cb5b1461016c5780639435092d1461018a578063c1b43357146101a8578063c2800ae0146101d8578063d3f29ace146101f65761009c565b80630249aa61146100a057806308a5917c146100d057806310f40927146100ee5780634319c3271461010c5780638953bb721461013c575b5f80fd5b6100ba60048036038101906100b59190610600565b610212565b6040516100c79190610645565b60405180910390f35b6100d861022f565b6040516100e5919061066d565b60405180910390f35b6100f661026b565b604051610103919061066d565b60405180910390f35b610126600480360381019061012191906106e0565b6102a8565b604051610133919061066d565b60405180910390f35b6101566004803603810190610151919061072e565b6102bd565b604051610163919061066d565b60405180910390f35b6101746102fb565b6040516101819190610768565b60405180910390f35b61019261031e565b60405161019f919061066d565b60405180910390f35b6101c260048036038101906101bd919061072e565b61035a565b6040516101cf919061066d565b60405180910390f35b6101e061036f565b6040516101ed919061066d565b60405180910390f35b610210600480360381019061020b9190610781565b6103b3565b005b6003602052805f5260405f205f915054906101000a900460ff1681565b5f60015f600280811115610246576102456107bf565b5b6002811115610258576102576107bf565b5b81526020019081526020015f2054905090565b5f60015f60016002811115610283576102826107bf565b5b6002811115610295576102946107bf565b5b81526020019081526020015f2054905090565b6002602052805f5260405f205f915090505481565b5f60015f8360028111156102d4576102d36107bf565b5b60028111156102e6576102e56107bf565b5b81526020019081526020015f20549050919050565b5f8054906101000a900473ffffffffffffffffffffffffffffffffffffffff1681565b5f60015f806002811115610335576103346107bf565b5b6002811115610347576103466107bf565b5b81526020019081526020015f2054905090565b6001602052805f5260405f205f915090505481565b5f60025f3373ffffffffffffffffffffffffffffffffffffffff1673ffffffffffffffffffffffffffffffffffffffff1681526020019081526020015f2054905090565b60035f8281526020019081526020015f205f9054906101000a900460ff1615610411576040517f08c379a00000000000000000000000000000000000000000000000000000000081526004016104089061086c565b60405180910390fd5b5f60025f3373ffffffffffffffffffffffffffffffffffffffff1673ffffffffffffffffffffffffffffffffffffffff1681526020019081526020015f2054146104c0575f60025f3373ffffffffffffffffffffffffffffffffffffffff1673ffffffffffffffffffffffffffffffffffffffff1681526020019081526020015f205490505f60035f8381526020019081526020015f205f6101000a81548160ff021916908315150217905550505b8060025f3373ffffffffffffffffffffffffffffffffffffffff1673ffffffffffffffffffffffffffffffffffffffff1681526020019081526020015f208190555060015f836002811115610518576105176107bf565b5b600281111561052a576105296107bf565b5b81526020019081526020015f205f815480929190610547906108b7565b9190505550600160035f8381526020019081526020015f205f6101000a81548160ff0219169083151502179055503373ffffffffffffffffffffffffffffffffffffffff167f78d96294d2cf18d8e22a8ad08170a97b7b0fbb5679ae831255aed8508c124ac983836040516105bd929190610944565b60405180910390a25050565b5f80fd5b5f819050919050565b6105df816105cd565b81146105e9575f80fd5b50565b5f813590506105fa816105d6565b92915050565b5f60208284031215610615576106146105c9565b5b5f610622848285016105ec565b91505092915050565b5f8115159050919050565b61063f8161062b565b82525050565b5f6020820190506106585f830184610636565b92915050565b610667816105cd565b82525050565b5f6020820190506106805f83018461065e565b92915050565b5f73ffffffffffffffffffffffffffffffffffffffff82169050919050565b5f6106af82610686565b9050919050565b6106bf816106a5565b81146106c9575f80fd5b50565b5f813590506106da816106b6565b92915050565b5f602082840312156106f5576106f46105c9565b5b5f610702848285016106cc565b91505092915050565b60038110610717575f80fd5b50565b5f813590506107288161070b565b92915050565b5f60208284031215610743576107426105c9565b5b5f6107508482850161071a565b91505092915050565b610762816106a5565b82525050565b5f60208201905061077b5f830184610759565b92915050565b5f8060408385031215610797576107966105c9565b5b5f6107a48582860161071a565b92505060206107b5858286016105ec565b9150509250929050565b7f4e487b71000000000000000000000000000000000000000000000000000000005f52602160045260245ffd5b5f82825260208201905092915050565b7f5468697320416164686172206e756d6265722068617320616c726561647920765f8201527f6f74656421000000000000000000000000000000000000000000000000000000602082015250565b5f6108566025836107ec565b9150610861826107fc565b604082019050919050565b5f6020820190508181035f8301526108838161084a565b9050919050565b7f4e487b71000000000000000000000000000000000000000000000000000000005f52601160045260245ffd5b5f6108c1826105cd565b91507fffffffffffffffffffffffffffffffffffffffffffffffffffffffffffffffff82036108f3576108f261088a565b5b600182019050919050565b6003811061090f5761090e6107bf565b5b50565b5f81905061091f826108fe565b919050565b5f61092e82610912565b9050919050565b61093e81610924565b82525050565b5f6040820190506109575f830185610935565b610964602083018461065e565b939250505056fea26469706673582212200b05486d2b3704fc07e3d7b929f8aa131df67a0f940931524434c28291c2738d64736f6c634300081a0033",
					"opcodes": "PUSH1 0x80 PUSH1 0x40 MSTORE CALLVALUE DUP1 ISZERO PUSH2 0xF JUMPI PUSH0 DUP1 REVERT JUMPDEST POP CALLER PUSH0 DUP1 PUSH2 0x100 EXP DUP2 SLOAD DUP2 PUSH20 0xFFFFFFFFFFFFFFFFFFFFFFFFFFFFFFFFFFFFFFFF MUL NOT AND SWAP1 DUP4 PUSH20 0xFFFFFFFFFFFFFFFFFFFFFFFFFFFFFFFFFFFFFFFF AND MUL OR SWAP1 SSTORE POP PUSH0 PUSH1 0x1 PUSH0 DUP1 PUSH1 0x2 DUP2 GT ISZERO PUSH2 0x66 JUMPI PUSH2 0x65 PUSH2 0x103 JUMP JUMPDEST JUMPDEST PUSH1 0x2 DUP2 GT ISZERO PUSH2 0x78 JUMPI PUSH2 0x77 PUSH2 0x103 JUMP JUMPDEST JUMPDEST DUP2 MSTORE PUSH1 0x20 ADD SWAP1 DUP2 MSTORE PUSH1 0x20 ADD PUSH0 KECCAK256 DUP2 SWAP1 SSTORE POP PUSH0 PUSH1 0x1 PUSH0 PUSH1 0x1 PUSH1 0x2 DUP2 GT ISZERO PUSH2 0xA1 JUMPI PUSH2 0xA0 PUSH2 0x103 JUMP JUMPDEST JUMPDEST PUSH1 0x2 DUP2 GT ISZERO PUSH2 0xB3 JUMPI PUSH2 0xB2 PUSH2 0x103 JUMP JUMPDEST JUMPDEST DUP2 MSTORE PUSH1 0x20 ADD SWAP1 DUP2 MSTORE PUSH1 0x20 ADD PUSH0 KECCAK256 DUP2 SWAP1 SSTORE POP PUSH0 PUSH1 0x1 PUSH0 PUSH1 0x2 DUP1 DUP2 GT ISZERO PUSH2 0xDB JUMPI PUSH2 0xDA PUSH2 0x103 JUMP JUMPDEST JUMPDEST PUSH1 0x2 DUP2 GT ISZERO PUSH2 0xED JUMPI PUSH2 0xEC PUSH2 0x103 JUMP JUMPDEST JUMPDEST DUP2 MSTORE PUSH1 0x20 ADD SWAP1 DUP2 MSTORE PUSH1 0x20 ADD PUSH0 KECCAK256 DUP2 SWAP1 SSTORE POP PUSH2 0x130 JUMP JUMPDEST PUSH32 0x4E487B7100000000000000000000000000000000000000000000000000000000 PUSH0 MSTORE PUSH1 0x21 PUSH1 0x4 MSTORE PUSH1 0x24 PUSH0 REVERT JUMPDEST PUSH2 0x9A1 DUP1 PUSH2 0x13D PUSH0 CODECOPY PUSH0 RETURN INVALID PUSH1 0x80 PUSH1 0x40 MSTORE CALLVALUE DUP1 ISZERO PUSH2 0xF JUMPI PUSH0 DUP1 REVERT JUMPDEST POP PUSH1 0x4 CALLDATASIZE LT PUSH2 0x9C JUMPI PUSH0 CALLDATALOAD PUSH1 0xE0 SHR DUP1 PUSH4 0x8DA5CB5B GT PUSH2 0x64 JUMPI DUP1 PUSH4 0x8DA5CB5B EQ PUSH2 0x16C JUMPI DUP1 PUSH4 0x9435092D EQ PUSH2 0x18A JUMPI DUP1 PUSH4 0xC1B43357 EQ PUSH2 0x1A8 JUMPI DUP1 PUSH4 0xC2800AE0 EQ PUSH2 0x1D8 JUMPI DUP1 PUSH4 0xD3F29ACE EQ PUSH2 0x1F6 JUMPI PUSH2 0x9C JUMP JUMPDEST DUP1 PUSH4 0x249AA61 EQ PUSH2 0xA0 JUMPI DUP1 PUSH4 0x8A5917C EQ PUSH2 0xD0 JUMPI DUP1 PUSH4 0x10F40927 EQ PUSH2 0xEE JUMPI DUP1 PUSH4 0x4319C327 EQ PUSH2 0x10C JUMPI DUP1 PUSH4 0x8953BB72 EQ PUSH2 0x13C JUMPI JUMPDEST PUSH0 DUP1 REVERT JUMPDEST PUSH2 0xBA PUSH1 0x4 DUP1 CALLDATASIZE SUB DUP2 ADD SWAP1 PUSH2 0xB5 SWAP2 SWAP1 PUSH2 0x600 JUMP JUMPDEST PUSH2 0x212 JUMP JUMPDEST PUSH1 0x40 MLOAD PUSH2 0xC7 SWAP2 SWAP1 PUSH2 0x645 JUMP JUMPDEST PUSH1 0x40 MLOAD DUP1 SWAP2 SUB SWAP1 RETURN JUMPDEST PUSH2 0xD8 PUSH2 0x22F JUMP JUMPDEST PUSH1 0x40 MLOAD PUSH2 0xE5 SWAP2 SWAP1 PUSH2 0x66D JUMP JUMPDEST PUSH1 0x40 MLOAD DUP1 SWAP2 SUB SWAP1 RETURN JUMPDEST PUSH2 0xF6 PUSH2 0x26B JUMP JUMPDEST PUSH1 0x40 MLOAD PUSH2 0x103 SWAP2 SWAP1 PUSH2 0x66D JUMP JUMPDEST PUSH1 0x40 MLOAD DUP1 SWAP2 SUB SWAP1 RETURN JUMPDEST PUSH2 0x126 PUSH1 0x4 DUP1 CALLDATASIZE SUB DUP2 ADD SWAP1 PUSH2 0x121 SWAP2 SWAP1 PUSH2 0x6E0 JUMP JUMPDEST PUSH2 0x2A8 JUMP JUMPDEST PUSH1 0x40 MLOAD PUSH2 0x133 SWAP2 SWAP1 PUSH2 0x66D JUMP JUMPDEST PUSH1 0x40 MLOAD DUP1 SWAP2 SUB SWAP1 RETURN JUMPDEST PUSH2 0x156 PUSH1 0x4 DUP1 CALLDATASIZE SUB DUP2 ADD SWAP1 PUSH2 0x151 SWAP2 SWAP1 PUSH2 0x72E JUMP JUMPDEST PUSH2 0x2BD JUMP JUMPDEST PUSH1 0x40 MLOAD PUSH2 0x163 SWAP2 SWAP1 PUSH2 0x66D JUMP JUMPDEST PUSH1 0x40 MLOAD DUP1 SWAP2 SUB SWAP1 RETURN JUMPDEST PUSH2 0x174 PUSH2 0x2FB JUMP JUMPDEST PUSH1 0x40 MLOAD PUSH2 0x181 SWAP2 SWAP1 PUSH2 0x768 JUMP JUMPDEST PUSH1 0x40 MLOAD DUP1 SWAP2 SUB SWAP1 RETURN JUMPDEST PUSH2 0x192 PUSH2 0x31E JUMP JUMPDEST PUSH1 0x40 MLOAD PUSH2 0x19F SWAP2 SWAP1 PUSH2 0x66D JUMP JUMPDEST PUSH1 0x40 MLOAD DUP1 SWAP2 SUB SWAP1 RETURN JUMPDEST PUSH2 0x1C2 PUSH1 0x4 DUP1 CALLDATASIZE SUB DUP2 ADD SWAP1 PUSH2 0x1BD SWAP2 SWAP1 PUSH2 0x72E JUMP JUMPDEST PUSH2 0x35A JUMP JUMPDEST PUSH1 0x40 MLOAD PUSH2 0x1CF SWAP2 SWAP1 PUSH2 0x66D JUMP JUMPDEST PUSH1 0x40 MLOAD DUP1 SWAP2 SUB SWAP1 RETURN JUMPDEST PUSH2 0x1E0 PUSH2 0x36F JUMP JUMPDEST PUSH1 0x40 MLOAD PUSH2 0x1ED SWAP2 SWAP1 PUSH2 0x66D JUMP JUMPDEST PUSH1 0x40 MLOAD DUP1 SWAP2 SUB SWAP1 RETURN JUMPDEST PUSH2 0x210 PUSH1 0x4 DUP1 CALLDATASIZE SUB DUP2 ADD SWAP1 PUSH2 0x20B SWAP2 SWAP1 PUSH2 0x781 JUMP JUMPDEST PUSH2 0x3B3 JUMP JUMPDEST STOP JUMPDEST PUSH1 0x3 PUSH1 0x20 MSTORE DUP1 PUSH0 MSTORE PUSH1 0x40 PUSH0 KECCAK256 PUSH0 SWAP2 POP SLOAD SWAP1 PUSH2 0x100 EXP SWAP1 DIV PUSH1 0xFF AND DUP2 JUMP JUMPDEST PUSH0 PUSH1 0x1 PUSH0 PUSH1 0x2 DUP1 DUP2 GT ISZERO PUSH2 0x246 JUMPI PUSH2 0x245 PUSH2 0x7BF JUMP JUMPDEST JUMPDEST PUSH1 0x2 DUP2 GT ISZERO PUSH2 0x258 JUMPI PUSH2 0x257 PUSH2 0x7BF JUMP JUMPDEST JUMPDEST DUP2 MSTORE PUSH1 0x20 ADD SWAP1 DUP2 MSTORE PUSH1 0x20 ADD PUSH0 KECCAK256 SLOAD SWAP1 POP SWAP1 JUMP JUMPDEST PUSH0 PUSH1 0x1 PUSH0 PUSH1 0x1 PUSH1 0x2 DUP2 GT ISZERO PUSH2 0x283 JUMPI PUSH2 0x282 PUSH2 0x7BF JUMP JUMPDEST JUMPDEST PUSH1 0x2 DUP2 GT ISZERO PUSH2 0x295 JUMPI PUSH2 0x294 PUSH2 0x7BF JUMP JUMPDEST JUMPDEST DUP2 MSTORE PUSH1 0x20 ADD SWAP1 DUP2 MSTORE PUSH1 0x20 ADD PUSH0 KECCAK256 SLOAD SWAP1 POP SWAP1 JUMP JUMPDEST PUSH1 0x2 PUSH1 0x20 MSTORE DUP1 PUSH0 MSTORE PUSH1 0x40 PUSH0 KECCAK256 PUSH0 SWAP2 POP SWAP1 POP SLOAD DUP2 JUMP JUMPDEST PUSH0 PUSH1 0x1 PUSH0 DUP4 PUSH1 0x2 DUP2 GT ISZERO PUSH2 0x2D4 JUMPI PUSH2 0x2D3 PUSH2 0x7BF JUMP JUMPDEST JUMPDEST PUSH1 0x2 DUP2 GT ISZERO PUSH2 0x2E6 JUMPI PUSH2 0x2E5 PUSH2 0x7BF JUMP JUMPDEST JUMPDEST DUP2 MSTORE PUSH1 0x20 ADD SWAP1 DUP2 MSTORE PUSH1 0x20 ADD PUSH0 KECCAK256 SLOAD SWAP1 POP SWAP2 SWAP1 POP JUMP JUMPDEST PUSH0 DUP1 SLOAD SWAP1 PUSH2 0x100 EXP SWAP1 DIV PUSH20 0xFFFFFFFFFFFFFFFFFFFFFFFFFFFFFFFFFFFFFFFF AND DUP2 JUMP JUMPDEST PUSH0 PUSH1 0x1 PUSH0 DUP1 PUSH1 0x2 DUP2 GT ISZERO PUSH2 0x335 JUMPI PUSH2 0x334 PUSH2 0x7BF JUMP JUMPDEST JUMPDEST PUSH1 0x2 DUP2 GT ISZERO PUSH2 0x347 JUMPI PUSH2 0x346 PUSH2 0x7BF JUMP JUMPDEST JUMPDEST DUP2 MSTORE PUSH1 0x20 ADD SWAP1 DUP2 MSTORE PUSH1 0x20 ADD PUSH0 KECCAK256 SLOAD SWAP1 POP SWAP1 JUMP JUMPDEST PUSH1 0x1 PUSH1 0x20 MSTORE DUP1 PUSH0 MSTORE PUSH1 0x40 PUSH0 KECCAK256 PUSH0 SWAP2 POP SWAP1 POP SLOAD DUP2 JUMP JUMPDEST PUSH0 PUSH1 0x2 PUSH0 CALLER PUSH20 0xFFFFFFFFFFFFFFFFFFFFFFFFFFFFFFFFFFFFFFFF AND PUSH20 0xFFFFFFFFFFFFFFFFFFFFFFFFFFFFFFFFFFFFFFFF AND DUP2 MSTORE PUSH1 0x20 ADD SWAP1 DUP2 MSTORE PUSH1 0x20 ADD PUSH0 KECCAK256 SLOAD SWAP1 POP SWAP1 JUMP JUMPDEST PUSH1 0x3 PUSH0 DUP3 DUP2 MSTORE PUSH1 0x20 ADD SWAP1 DUP2 MSTORE PUSH1 0x20 ADD PUSH0 KECCAK256 PUSH0 SWAP1 SLOAD SWAP1 PUSH2 0x100 EXP SWAP1 DIV PUSH1 0xFF AND ISZERO PUSH2 0x411 JUMPI PUSH1 0x40 MLOAD PUSH32 0x8C379A000000000000000000000000000000000000000000000000000000000 DUP2 MSTORE PUSH1 0x4 ADD PUSH2 0x408 SWAP1 PUSH2 0x86C JUMP JUMPDEST PUSH1 0x40 MLOAD DUP1 SWAP2 SUB SWAP1 REVERT JUMPDEST PUSH0 PUSH1 0x2 PUSH0 CALLER PUSH20 0xFFFFFFFFFFFFFFFFFFFFFFFFFFFFFFFFFFFFFFFF AND PUSH20 0xFFFFFFFFFFFFFFFFFFFFFFFFFFFFFFFFFFFFFFFF AND DUP2 MSTORE PUSH1 0x20 ADD SWAP1 DUP2 MSTORE PUSH1 0x20 ADD PUSH0 KECCAK256 SLOAD EQ PUSH2 0x4C0 JUMPI PUSH0 PUSH1 0x2 PUSH0 CALLER PUSH20 0xFFFFFFFFFFFFFFFFFFFFFFFFFFFFFFFFFFFFFFFF AND PUSH20 0xFFFFFFFFFFFFFFFFFFFFFFFFFFFFFFFFFFFFFFFF AND DUP2 MSTORE PUSH1 0x20 ADD SWAP1 DUP2 MSTORE PUSH1 0x20 ADD PUSH0 KECCAK256 SLOAD SWAP1 POP PUSH0 PUSH1 0x3 PUSH0 DUP4 DUP2 MSTORE PUSH1 0x20 ADD SWAP1 DUP2 MSTORE PUSH1 0x20 ADD PUSH0 KECCAK256 PUSH0 PUSH2 0x100 EXP DUP2 SLOAD DUP2 PUSH1 0xFF MUL NOT AND SWAP1 DUP4 ISZERO ISZERO MUL OR SWAP1 SSTORE POP POP JUMPDEST DUP1 PUSH1 0x2 PUSH0 CALLER PUSH20 0xFFFFFFFFFFFFFFFFFFFFFFFFFFFFFFFFFFFFFFFF AND PUSH20 0xFFFFFFFFFFFFFFFFFFFFFFFFFFFFFFFFFFFFFFFF AND DUP2 MSTORE PUSH1 0x20 ADD SWAP1 DUP2 MSTORE PUSH1 0x20 ADD PUSH0 KECCAK256 DUP2 SWAP1 SSTORE POP PUSH1 0x1 PUSH0 DUP4 PUSH1 0x2 DUP2 GT ISZERO PUSH2 0x518 JUMPI PUSH2 0x517 PUSH2 0x7BF JUMP JUMPDEST JUMPDEST PUSH1 0x2 DUP2 GT ISZERO PUSH2 0x52A JUMPI PUSH2 0x529 PUSH2 0x7BF JUMP JUMPDEST JUMPDEST DUP2 MSTORE PUSH1 0x20 ADD SWAP1 DUP2 MSTORE PUSH1 0x20 ADD PUSH0 KECCAK256 PUSH0 DUP2 SLOAD DUP1 SWAP3 SWAP2 SWAP1 PUSH2 0x547 SWAP1 PUSH2 0x8B7 JUMP JUMPDEST SWAP2 SWAP1 POP SSTORE POP PUSH1 0x1 PUSH1 0x3 PUSH0 DUP4 DUP2 MSTORE PUSH1 0x20 ADD SWAP1 DUP2 MSTORE PUSH1 0x20 ADD PUSH0 KECCAK256 PUSH0 PUSH2 0x100 EXP DUP2 SLOAD DUP2 PUSH1 0xFF MUL NOT AND SWAP1 DUP4 ISZERO ISZERO MUL OR SWAP1 SSTORE POP CALLER PUSH20 0xFFFFFFFFFFFFFFFFFFFFFFFFFFFFFFFFFFFFFFFF AND PUSH32 0x78D96294D2CF18D8E22A8AD08170A97B7B0FBB5679AE831255AED8508C124AC9 DUP4 DUP4 PUSH1 0x40 MLOAD PUSH2 0x5BD SWAP3 SWAP2 SWAP1 PUSH2 0x944 JUMP JUMPDEST PUSH1 0x40 MLOAD DUP1 SWAP2 SUB SWAP1 LOG2 POP POP JUMP JUMPDEST PUSH0 DUP1 REVERT JUMPDEST PUSH0 DUP2 SWAP1 POP SWAP2 SWAP1 POP JUMP JUMPDEST PUSH2 0x5DF DUP2 PUSH2 0x5CD JUMP JUMPDEST DUP2 EQ PUSH2 0x5E9 JUMPI PUSH0 DUP1 REVERT JUMPDEST POP JUMP JUMPDEST PUSH0 DUP2 CALLDATALOAD SWAP1 POP PUSH2 0x5FA DUP2 PUSH2 0x5D6 JUMP JUMPDEST SWAP3 SWAP2 POP POP JUMP JUMPDEST PUSH0 PUSH1 0x20 DUP3 DUP5 SUB SLT ISZERO PUSH2 0x615 JUMPI PUSH2 0x614 PUSH2 0x5C9 JUMP JUMPDEST JUMPDEST PUSH0 PUSH2 0x622 DUP5 DUP3 DUP6 ADD PUSH2 0x5EC JUMP JUMPDEST SWAP2 POP POP SWAP3 SWAP2 POP POP JUMP JUMPDEST PUSH0 DUP2 ISZERO ISZERO SWAP1 POP SWAP2 SWAP1 POP JUMP JUMPDEST PUSH2 0x63F DUP2 PUSH2 0x62B JUMP JUMPDEST DUP3 MSTORE POP POP JUMP JUMPDEST PUSH0 PUSH1 0x20 DUP3 ADD SWAP1 POP PUSH2 0x658 PUSH0 DUP4 ADD DUP5 PUSH2 0x636 JUMP JUMPDEST SWAP3 SWAP2 POP POP JUMP JUMPDEST PUSH2 0x667 DUP2 PUSH2 0x5CD JUMP JUMPDEST DUP3 MSTORE POP POP JUMP JUMPDEST PUSH0 PUSH1 0x20 DUP3 ADD SWAP1 POP PUSH2 0x680 PUSH0 DUP4 ADD DUP5 PUSH2 0x65E JUMP JUMPDEST SWAP3 SWAP2 POP POP JUMP JUMPDEST PUSH0 PUSH20 0xFFFFFFFFFFFFFFFFFFFFFFFFFFFFFFFFFFFFFFFF DUP3 AND SWAP1 POP SWAP2 SWAP1 POP JUMP JUMPDEST PUSH0 PUSH2 0x6AF DUP3 PUSH2 0x686 JUMP JUMPDEST SWAP1 POP SWAP2 SWAP1 POP JUMP JUMPDEST PUSH2 0x6BF DUP2 PUSH2 0x6A5 JUMP JUMPDEST DUP2 EQ PUSH2 0x6C9 JUMPI PUSH0 DUP1 REVERT JUMPDEST POP JUMP JUMPDEST PUSH0 DUP2 CALLDATALOAD SWAP1 POP PUSH2 0x6DA DUP2 PUSH2 0x6B6 JUMP JUMPDEST SWAP3 SWAP2 POP POP JUMP JUMPDEST PUSH0 PUSH1 0x20 DUP3 DUP5 SUB SLT ISZERO PUSH2 0x6F5 JUMPI PUSH2 0x6F4 PUSH2 0x5C9 JUMP JUMPDEST JUMPDEST PUSH0 PUSH2 0x702 DUP5 DUP3 DUP6 ADD PUSH2 0x6CC JUMP JUMPDEST SWAP2 POP POP SWAP3 SWAP2 POP POP JUMP JUMPDEST PUSH1 0x3 DUP2 LT PUSH2 0x717 JUMPI PUSH0 DUP1 REVERT JUMPDEST POP JUMP JUMPDEST PUSH0 DUP2 CALLDATALOAD SWAP1 POP PUSH2 0x728 DUP2 PUSH2 0x70B JUMP JUMPDEST SWAP3 SWAP2 POP POP JUMP JUMPDEST PUSH0 PUSH1 0x20 DUP3 DUP5 SUB SLT ISZERO PUSH2 0x743 JUMPI PUSH2 0x742 PUSH2 0x5C9 JUMP JUMPDEST JUMPDEST PUSH0 PUSH2 0x750 DUP5 DUP3 DUP6 ADD PUSH2 0x71A JUMP JUMPDEST SWAP2 POP POP SWAP3 SWAP2 POP POP JUMP JUMPDEST PUSH2 0x762 DUP2 PUSH2 0x6A5 JUMP JUMPDEST DUP3 MSTORE POP POP JUMP JUMPDEST PUSH0 PUSH1 0x20 DUP3 ADD SWAP1 POP PUSH2 0x77B PUSH0 DUP4 ADD DUP5 PUSH2 0x759 JUMP JUMPDEST SWAP3 SWAP2 POP POP JUMP JUMPDEST PUSH0 DUP1 PUSH1 0x40 DUP4 DUP6 SUB SLT ISZERO PUSH2 0x797 JUMPI PUSH2 0x796 PUSH2 0x5C9 JUMP JUMPDEST JUMPDEST PUSH0 PUSH2 0x7A4 DUP6 DUP3 DUP7 ADD PUSH2 0x71A JUMP JUMPDEST SWAP3 POP POP PUSH1 0x20 PUSH2 0x7B5 DUP6 DUP3 DUP7 ADD PUSH2 0x5EC JUMP JUMPDEST SWAP2 POP POP SWAP3 POP SWAP3 SWAP1 POP JUMP JUMPDEST PUSH32 0x4E487B7100000000000000000000000000000000000000000000000000000000 PUSH0 MSTORE PUSH1 0x21 PUSH1 0x4 MSTORE PUSH1 0x24 PUSH0 REVERT JUMPDEST PUSH0 DUP3 DUP3 MSTORE PUSH1 0x20 DUP3 ADD SWAP1 POP SWAP3 SWAP2 POP POP JUMP JUMPDEST PUSH32 0x5468697320416164686172206E756D6265722068617320616C72656164792076 PUSH0 DUP3 ADD MSTORE PUSH32 0x6F74656421000000000000000000000000000000000000000000000000000000 PUSH1 0x20 DUP3 ADD MSTORE POP JUMP JUMPDEST PUSH0 PUSH2 0x856 PUSH1 0x25 DUP4 PUSH2 0x7EC JUMP JUMPDEST SWAP2 POP PUSH2 0x861 DUP3 PUSH2 0x7FC JUMP JUMPDEST PUSH1 0x40 DUP3 ADD SWAP1 POP SWAP2 SWAP1 POP JUMP JUMPDEST PUSH0 PUSH1 0x20 DUP3 ADD SWAP1 POP DUP2 DUP2 SUB PUSH0 DUP4 ADD MSTORE PUSH2 0x883 DUP2 PUSH2 0x84A JUMP JUMPDEST SWAP1 POP SWAP2 SWAP1 POP JUMP JUMPDEST PUSH32 0x4E487B7100000000000000000000000000000000000000000000000000000000 PUSH0 MSTORE PUSH1 0x11 PUSH1 0x4 MSTORE PUSH1 0x24 PUSH0 REVERT JUMPDEST PUSH0 PUSH2 0x8C1 DUP3 PUSH2 0x5CD JUMP JUMPDEST SWAP2 POP PUSH32 0xFFFFFFFFFFFFFFFFFFFFFFFFFFFFFFFFFFFFFFFFFFFFFFFFFFFFFFFFFFFFFFFF DUP3 SUB PUSH2 0x8F3 JUMPI PUSH2 0x8F2 PUSH2 0x88A JUMP JUMPDEST JUMPDEST PUSH1 0x1 DUP3 ADD SWAP1 POP SWAP2 SWAP1 POP JUMP JUMPDEST PUSH1 0x3 DUP2 LT PUSH2 0x90F JUMPI PUSH2 0x90E PUSH2 0x7BF JUMP JUMPDEST JUMPDEST POP JUMP JUMPDEST PUSH0 DUP2 SWAP1 POP PUSH2 0x91F DUP3 PUSH2 0x8FE JUMP JUMPDEST SWAP2 SWAP1 POP JUMP JUMPDEST PUSH0 PUSH2 0x92E DUP3 PUSH2 0x912 JUMP JUMPDEST SWAP1 POP SWAP2 SWAP1 POP JUMP JUMPDEST PUSH2 0x93E DUP2 PUSH2 0x924 JUMP JUMPDEST DUP3 MSTORE POP POP JUMP JUMPDEST PUSH0 PUSH1 0x40 DUP3 ADD SWAP1 POP PUSH2 0x957 PUSH0 DUP4 ADD DUP6 PUSH2 0x935 JUMP JUMPDEST PUSH2 0x964 PUSH1 0x20 DUP4 ADD DUP5 PUSH2 0x65E JUMP JUMPDEST SWAP4 SWAP3 POP POP POP JUMP INVALID LOG2 PUSH5 0x6970667358 0x22 SLT KECCAK256 SIGNEXTEND SDIV BASEFEE PUSH14 0x2B3704FC07E3D7B929F8AA131DF6 PUSH27 0xF940931524434C28291C2738D64736F6C634300081A0033000000 "
				},
				"gasEstimates": {
					"creation": {
						"codeDepositCost": "493000",
						"executionCost": "40228",
						"totalCost": "533228"
					},
					"external": {
						"aadharHasVoted(uint256)": "2786",
						"getAamAadmiVotes()": "2583",
						"getBJPVotes()": "2582",
						"getCongressVotes()": "2605",
						"getVoterAadhar()": "2585",
						"getVotes(uint8)": "2868",
						"owner()": "2505",
						"vote(uint8,uint256)": "infinite",
						"voterAadhar(address)": "2869",
						"votes(uint8)": "2756"
					}
				},
				"methodIdentifiers": {
					"aadharHasVoted(uint256)": "0249aa61",
					"getAamAadmiVotes()": "08a5917c",
					"getBJPVotes()": "9435092d",
					"getCongressVotes()": "10f40927",
					"getVoterAadhar()": "c2800ae0",
					"getVotes(uint8)": "8953bb72",
					"owner()": "8da5cb5b",
					"vote(uint8,uint256)": "d3f29ace",
					"voterAadhar(address)": "4319c327",
					"votes(uint8)": "c1b43357"
				}
			},
			"storageLayout": {
				"storage": [
					{
						"astId": 3,
						"contract": "voting.sol:VotingSystem",
						"label": "owner",
						"offset": 0,
						"slot": "0",
						"type": "t_address"
					},
					{
						"astId": 12,
						"contract": "voting.sol:VotingSystem",
						"label": "votes",
						"offset": 0,
						"slot": "1",
						"type": "t_mapping(t_enum(Party)7,t_uint256)"
					},
					{
						"astId": 16,
						"contract": "voting.sol:VotingSystem",
						"label": "voterAadhar",
						"offset": 0,
						"slot": "2",
						"type": "t_mapping(t_address,t_uint256)"
					},
					{
						"astId": 20,
						"contract": "voting.sol:VotingSystem",
						"label": "aadharHasVoted",
						"offset": 0,
						"slot": "3",
						"type": "t_mapping(t_uint256,t_bool)"
					}
				],
				"types": {
					"t_address": {
						"encoding": "inplace",
						"label": "address",
						"numberOfBytes": "20"
					},
					"t_bool": {
						"encoding": "inplace",
						"label": "bool",
						"numberOfBytes": "1"
					},
					"t_enum(Party)7": {
						"encoding": "inplace",
						"label": "enum VotingSystem.Party",
						"numberOfBytes": "1"
					},
					"t_mapping(t_address,t_uint256)": {
						"encoding": "mapping",
						"key": "t_address",
						"label": "mapping(address => uint256)",
						"numberOfBytes": "32",
						"value": "t_uint256"
					},
					"t_mapping(t_enum(Party)7,t_uint256)": {
						"encoding": "mapping",
						"key": "t_enum(Party)7",
						"label": "mapping(enum VotingSystem.Party => uint256)",
						"numberOfBytes": "32",
						"value": "t_uint256"
					},
					"t_mapping(t_uint256,t_bool)": {
						"encoding": "mapping",
						"key": "t_uint256",
						"label": "mapping(uint256 => bool)",
						"numberOfBytes": "32",
						"value": "t_bool"
					},
					"t_uint256": {
						"encoding": "inplace",
						"label": "uint256",
						"numberOfBytes": "32"
					}
				}
			},
			"userdoc": {
				"kind": "user",
				"methods": {},
				"version": 1
			}
		}
	}
}